:100000008A111128FF3FFF3FFE00030EF60004088F
:10001000F7000A08F800831203137F08F9008A1119
:1000200013288A11D0280108F5007508F1000B1C6F
:100030001A281B283B285C307102031C2028212829
:100040002A2881017A19252826282828FA157A14C1
:100050007A15392831307102031C2F2830283928AD
:1000600081017A1D342835283728FA157A147A1137
:10007000392806120B108C1C3E283F28A0287A1C19
:10008000422843289E28FA1D4628472863287308DB
:10009000053A03194C284D2854280130F5007508FD
:1000A000F0070310F20C54287308063A031D592870
:1000B0005A285B28FA14FA11F301F4010C30F50008
:1000C0007508FB007F280130F5007508F4077408F7
:1000D0007B06031D6C286D287F280130F50075080C
:1000E000F3070130F5007508F0070310F20CF21762
:1000F000F4010830F5007508FB007F287F28FA1C02
:10010000822883288B28F001FA101B3099007E305A
:100110009900061495287008083A031D9028912824
:100120009528F0017208990095287308073A031D75
:100130009A289B289E287A1006109E288C10A028AA
:100140007908FF0078088A0077088400760E83001B
:10015000FE0E7E0E090083308316031381003030BB
:10016000831203139000053092001F30831603138F
:100170009B00F730850034308600A03083120313D3
:1001800098002430831603139800813099000630BC
:100190009C00C8308B0002308C0082309200080036
:1001A000FA01F001F101F201F301F4018A11E420F6
:1001B0008A11FB0083018A11DD288A11AB208A1184
:1001C000E128E1288A1111280834FF3FFF3FFF3F53
:04400E000AFFFCFFAA
:00000001FF
