:040000008A11112828
:10000800FE00030EF9000408FA000A08FB00831238
:1000180003137F08FC008A1113288A11D9280B1CA6
:100028001628172842280108F8007808F2008101EC
:100038000B105D307202031C222823282F28FD187C
:10004800262827282D287D157208F8007808F3003F
:100058002D28FD14A32832307202031C34283528B9
:10006800A328FD1C38283928A3287D157208F80014
:100078007808F300A328A328A328A3288C1C4528C4
:100088004628A3287E3091008C107308031D4D2844
:100098009E280130F3027D147D1D532854286928B9
:1000A8007608053A031959285A2861280130F800BA
:1000B8007808F1070310F40C61287D11F601F701A7
:1000C8000C30F8007808F50085280130F800780829
:1000D800F70777087506031D7228732885280130ED
:1000E800F8007808F6070130F8007808F1070310DF
:1000F800F40CF417F7010830F8007808F5008528A3
:10010800852874087E3A031D8A288B289228F101D5
:100118001B3099007B3099000516A3287108083A0E
:10012800031D97289828A328F1017B309900A3285C
:10013800A328A3287D100512A328A328A3287C0898
:10014800FF007B088A007A088400790E8300FE0E7F
:100158007E0E0900C8308B000230831603138C0012
:1001680040308D00843081003030831203139000BA
:10017800053092000630831603139C001F309B0045
:10018800F730850034308600831203138501860119
:10019800A03098002430831603139800813099000A
:1001A8007E308312031391000800FD01F001F10174
:1001B800F201F301F401F501F601F70183018A1157
:1001C800E5288A11AE208A11E928E9288A11112820
:04400E000AFFFCFFAA
:00000001FF
